:020000022000DC
:1060000000000120756302005D6302005F6302000F
:106010006163020063630200656302000000000028
:1060200000000000000000000000000067630200A4
:1060300069630200000000006B6302006D630200F0
:10604000118702006F630200598B02006F63020028
:106050006F6302006F6302000D8A02006F6302002B
:106060006F6302006F6302006F6302006F630200E0
:106070006F6302006F6302006F6302006F630200D0
:106080006F630200FD7702006F6302006F6302001E
:106090006F6302006F63020005AB02006F630200D2
:1060A0006F6302006F6302006F6302006F630200A0
:1060B0006F6302006F630200000000000000000038
:1060C0006F6302006F6302006F6302006F63020080
:1060D0006F6302006F6302006F6302000000000044
:1060E00000000000000000000000000000000000B0
:1060F00000000000000000000000000000000000A0
:10610000000000000000000000000000000000008F
:10611000000000000000000000000000000000007F
:10612000000000000000000000000000000000006F
:10613000000000000000000000000000000000005F
:10614000000000000000000000000000000000004F
:10615000000000000000000000000000000000003F
:10616000000000000000000000000000000000002F
:10617000000000000000000000000000000000001F
:10618000000000000000000000000000000000000F
:1061900000000000000000000000000000000000FF
:1061A00000000000000000000000000000000000EF
:1061B00000000000000000000000000000000000DF
:1061C00000000000000000000000000000000000CF
:1061D00000000000000000000000000000000000BF
:1061E00000000000000000000000000000000000AF
:1061F000000000000000000000000000000000009F
:10620000354936480A1A02D0072291438D4634494F
:1062100034480A1A06D00722914381F309880222E2
:1062200082F3148830483149314A00F044F831484B
:106230003149324A00F03FF831483249324A00F0E1
:106240003AF832483249334A00F035F83248334997
:10625000334A00F030F833483349344A00F02BF821
:1062600033483449344A00F026F83448344900228F
:1062700000F02CF833483449002200F027F8334866
:106280003349091A082902DB002202604160314AC1
:1062900090471F481F49884205D00268043003B464
:1062A000904703BCF7E700208646EC46002000211B
:1062B000294A9047FEE7884207D0521A05D0037852
:1062C00001300B700131013AF9D17047884202D098
:1062D00002700130FAE770470000012000E0002062
:1062E0000000012000000120B8BD0200F0220020C3
:1062F0006C230020D0630200D063020050AF020084
:10630000B8BD0200F0220020F022002044B00200BC
:1063100044B0020044B0020044B0020044B00200A5
:1063200044B0020044B0020044B00200B8BD020014
:1063300034BE02006C2300206C2300206C2300205C
:10634000922C0020942C0020942C0020942C0020CF
:10635000944C00209D63020055970200FEE7FEE783
:10636000FEE7FEE7FEE7FEE7FEE7FEE7FEE7FEE705
:1063700000F002B8FFF7FCBF0F484FF00701884359
:1063800085460E4880470E48016841F4700101605F
:10639000BFF34F8FBFF36F8FFFF732BF09480A4932
:1063A0000A4A884207D0521A05D0037801300B7090
:1063B0000131013AF9D170470000012055810200F6
:1063C00088ED00E044B00200F0220020F02200201E
:1063D000F0B595B01D46164608460C4601F0BCFDCA
:1063E0001A9B0D93CDE9086500252B46082205A9C7
:1063F00020460A958DF82C500C9501F0C9FD079B9D
:106400000293069B03939DF814308DF8115003F00E
:106410000302012A1DD1BDF81420059DC3F3C20358
:10642000C2F383168DF81030B20008230EA920465F
:1064300001F0AEFDC5F3952508AB0093324602ABE3
:106440000EA9284600F0AEFB204601F089FD15B0EC
:10645000F0BD022AF8D1BDF81650C3F3C203C5F34C
:1064600089158DF810300827082D2E4628BF0826DC
:106470003B4632460EA9204601F08AFDAD1B08AB13
:1064800002AA31460EA8374400F0F0FB002DEBD1F4
:10649000DAE70000014B01221A707047AD2300209B
:1064A0007047000070B50E4D06460FCD88B06C46A3
:1064B0000FC495E80F00002E84E80F00094A0A482F
:1064C0004FF0060308BF00226946009302F0A8F8C7
:1064D00008B100F0C9FD054B1E7008B070BD00BFCB
:1064E00044B0020095640200F02200206C230020DA
:1064F00007B5044B0093044A4023FFF769FF03B03C
:106500005DF804FB0D6502006D23002038B50D48D1
:106510000D4C0E4D002323700378EB5CD2B263B1B7
:10652000043002F0A7FF08B100F09EFD084B1A7876
:1065300012B12378002BFBD038BD0C3002F048FD9F
:10654000F1E700BFF0220020AD230020282A002020
:106550006C23002008B50848084A0378D35C3BB197
:10656000043002F0EBFEBDE808400020FFF79ABFC0
:106570000C3002F0B7FCF6E7F0220020282A0020B9
:106580000120FFF78FBF000008B5FFF7F9FF0448AF
:10659000042100F071FA034B01225A7108BD00BFBB
:1065A00034B0020004230020037813F0040216D054
:1065B00003F00303012B03D0022B09D00120704705
:1065C0000A6800880232C0F3831002440A60F5E7CB
:1065D0000B684288023303EB92130B60EEE7104620
:1065E000704700002DE9F04FDFF81CA187B00F467F
:1065F00000230446861C0DF1070015468DF8073070
:1066000000F08EFFDAF804203A60DAF8083003F57B
:1066100080739B1A0AF21C470AF583690AF2144830
:10662000B3421AD30020002D69D004F00F039B0160
:1066300043F0050363F30F00DAF80430DAB20332F3
:1066400033444AF822009DF80700CAF8043000F0ED
:106650008BFF012007B0BDE8F08F0121384601F023
:10666000AAF9484601F0BFF9404601F0BCF9DAF852
:1066700008000290C0B203300AEB800002A9FFF7C5
:1066800093FF029B30BBDAB20AEB8202D16803911E
:106690009A1C0133DBB20AEB83030292D3F80CB0ED
:1066A00001F00303012B22D0022B15D08346404674
:1066B00001F09CF910B1029BCAF8083059463846DF
:1066C00001F079F9DAF80830DAF8042003F580737C
:1066D0009B1AA5E7D8B2CEE7BDF80E30C3F38913F5
:1066E00003334FEA1B4B02EB93030293DFE7BDF842
:1066F0000C30C3F383134FEA1B4B1344F5E7A40597
:1067000044F0060098E700BF80240020064B0748AD
:1067100010B500221A7001F0D8FB044610B90448E5
:1067200001F080FC204610BD80240020A0AF0200B4
:1067300098B0020030B50A4C71B10A4A0A49121BDE
:10674000D20800239A4201D1002030BD31F82350F5
:10675000854202D00133F5E7034654F83300F4E7ED
:10676000B4AF020034B00200F0220020094B01391E
:1067700003EBC000032909D8DFE801F00A02040690
:1067800004207047007970474079704700207047B7
:1067900002207047B4AF020070470000034BD3E9FA
:1067A0000130C31A58425841704700BF802400206E
:1067B0002DE9F04186B0FFF7F1FF0546002840F0D3
:1067C000ED80774CC4F81804BFF34F8FA368029391
:1067D000DBB2033304EB830002A9FFF7E5FE029B63
:1067E00018B1D4F81824002A5AD0DAB2991C01330F
:1067F00004EB8202DBB204EB8303D268DB68049310
:1068000002F00303022B0392029154D1BDF80E3023
:106810006448C3F38917502F3E4628BF502606F11F
:10682000080166F38F13C1F30901ADF80E3001F0D2
:1068300064FB0546002800F09C8001F08DFB0023DE
:10684000082203A9284601F099FB0299CB43DBB249
:106850000133C9B20331B6EB830F4FEA830204EB75
:10686000810125D95FFA82F80823A6EB080628469D
:1068700001F084FBF6B208F108034B4903F0FC0376
:106880003246284601F07AFB029B033703EB970759
:106890000297D4F81834002B43D1D4F8106453E095
:1068A00062689A4294D8A260284606B0BDE8F0819A
:1068B00008233246E5E7012B5BD1BDF80C3039489F
:1068C000C3F38311062928BF062161F3891302311E
:1068D00001F00F018900ADF80C3001F00EFB054608
:1068E000002846D001F038FB0023082203A92846DF
:1068F00001F044FB0026BDF80C20C2F38312B30064
:10690000964203F10803C4D202994A1CC9B203316A
:10691000029204EB81010422284601F02FFB01368C
:10692000E9E7284601F01CFBFFF738FF80F0010083
:10693000C5B2B9E7F3685B7923B1336829461B68B0
:1069400030469847F3681E68002EF3D1284601F0C0
:1069500007FB0DF107008DF8076000F0E1FDD4F8AA
:1069600018340BB9029BA3609DF8070000F0FCFDF2
:10697000DAE7D4F8104454B90C4B0D480D49C01A4D
:10698000C008000440F0020000F05EF8CCE7236885
:1069900020469B689847E3681C68ECE7002583E77E
:1069A00080240020A0AF02008C240020B4AF02009D
:1069B000DCAF020081B002002DE9F34704460E4629
:1069C000924601A9012218469946FFF70BFE1C4F7B
:1069D00010B3019D4FF00008AA1CC84508EB020146
:1069E00025D11848002100F0B7FF80F31000000403
:1069F00040EA1440E4006B1C04F03804DBB2EDB252
:106A000044F0010407EB8303033544EA881444EAA5
:106A10008624D86047F825403B781BB1FFF7C8FEB5
:106A20000028FBD1FFF7B8FE02B0BDE8F087C9B27D
:106A300007EB81015AF82830CB6008F10108CCE758
:106A4000802400209C28002000231A46FFF7B4BFB2
:106A500007B50123019201AAFFF7AEFF03B05DF86D
:106A600004FB07B5CDE9002302236A46FFF7A4FF24
:106A700003B05DF804FB000030B50F4CD4F81024CF
:106A800003460020114631B9D96808714AB9C4F8E3
:106A900010340A6030BDC9680D79854206D0096896
:106AA000F1E7D26814680C601360F3E701300A283C
:106AB000E8D14FF0FF30EDE78024002038B5084BD7
:106AC0000125D3F810441D7004B938BDE3685D7129
:106AD000236820465B689847E3681C68F4E700BFBA
:106AE0008024002030B5C38885B004460D4633B1FC
:106AF000144A00921449154A284600F0DAFF217A18
:106B000005291DD0637A4BB1A088FFF72FFE104BEB
:106B1000104953F82020284600F0CBFF227A0E4B74
:106B2000A08853F8222003920021FFF703FE039A66
:106B30000A490346284605B0BDE8304000F0B9BF19
:106B400005B030BDC4B00200ACB00200A4B0020079
:106B500030B10200C9B0020054B10200CCB0020052
:106B600007B503460846197A052911D05B7A2BB17F
:106B7000094A0A49019000F09CFF019808490190D8
:106B800000F097FF019803B05DF804EB00F086BFBA
:106B9000002AF8D0F2E700BFC4B00200C9B002007A
:106BA000C1B002002DE9F04385B01F460C9D0023C3
:106BB00095F80C902B7306460C46904629463846AD
:106BC000FFF790FFB8F1060F09D8DFE808F00412CC
:106BD000181F283340003146284600F06AFF002283
:106BE00029463846FFF7BCFF85F80C9005B0BDE894
:106BF000F08322683146284600F05BFFEFE7D4E9D6
:106C000000233146284600F054FFE8E7A3680093CC
:106C10003146D4E90023284600F04BFFDFE7E36864
:106C20000193A36800933146D4E90023284600F07D
:106C300040FFD4E723690293E3680193A3680093BC
:106C40003146D4E90023284600F033FFC7E76369E3
:106C5000039323690293E3680193A3680093314689
:106C6000D4E90023284600F024FFB8E708292DE9DD
:106C7000F74F80460E4617461C463DD800251B7B25
:106C80002573214610460193FFF72CFFDFF88CA0F7
:106C9000DFF88CB0AE4232D918F8052059462046AC
:106CA00000F007FF0135082DF4D11B49DFF874A06F
:106CB000DFF874B0204600F0FCFE4FF000094E45AE
:106CC00024D918F809507E2D1ED8284604F0ACF8B7
:106CD000002814BF2A462E225946204600F0E9FE1D
:106CE00009F10109B9F1080FE9D10122214638461D
:106CF000FFF736FF019B237303B0BDE8F08F5146C9
:106D0000204600F0D6FECDE72E22E5E7514620468C
:106D100000F0CFFEE4E700BFE0B00200DCB002000C
:106D2000D6B00200DEB00200E2B00200C30710B528
:106D300007D4F023054A4008145C2340194311543A
:106D400010BD0901C9B20F23F4E700BF4829002094
:106D500030B5094B1C78094B196800239C4202DCB2
:106D60000022104630BD11F83350854201EBC302BA
:106D7000F7D00133F2E700BF38290020582900205E
:106D800013B504460191FFF7E3FF38B143682BB117
:106D90000199204602B0BDE81040184702B010BD6E
:106DA000034B044819680022490800F081BA00BF6B
:106DB0003C2900201023002010B5C0B2FFF7C8FF07
:106DC0000446007801F018FE63785A1E534253417E
:106DD000834208D1044BD3E90023134303D1BDE818
:106DE0001040FFF7DDBF10BD4029002037B5430834
:106DF000374AD35CC2074CBF1B0903F00F0304469C
:106E00000D46042B25D8DFE803F003262F3C400075
:106E1000F9B10121FFF78AFF00230DF107008DF87A
:106E2000073000F07DFB0120A4F12003C4F1200114
:106E3000284A20FA01F100FA03F30B43A040D2E9FB
:106E4000004120430B43C2E900039DF8070000F016
:106E50008BFB03B030BD002918BF0221204603B0D0
:106E6000BDE83040FFF762BF49B10321FFF75EFF85
:106E70000121204603B0BDE83040FFF781BF01216A
:106E8000ECE70029E5D10421E8E709B10321E5E7B2
:106E9000FFF74CFF29462046FFF772FF0DF1070070
:106EA0008DF8075000F03CFB0120A4F12003C4F151
:106EB0002001084A20FA01F100FA03F30B43A04035
:106EC000D2E9004124EA000021EA0303BBE700BF46
:106ED00048290020402900202DE9F041124E134F8F
:106EE00000243378A34208DC114BD3E90023134379
:106EF00018D0BDE8F041FFF753BF3D6805EBC4086B
:106F000015F8340001F078FD98F801305A1E53420C
:106F10005341181A4142414115F83400FFF766FF0A
:106F20000134DEE7BDE8F08138290020582900202F
:106F300040290020092AF7B505460C4616463ED9D9
:106F400001F070FCE8B11F4B1F481D601F4B204F24
:106F50001C70204B002110221E6003F096FF1E4B78
:106F600000200021C3E90001013CE4B20326FF2C0C
:106F70000DD11A4A1A48002103B0BDE8F04000F0D4
:106F800085B901F017FC0028DDD003B0F0BD9DF8F5
:106F9000063015F834008DF8046005EBC40223F0C8
:106FA00007038DF8063001A993788DF805303A462D
:106FB00001F042FC013CE4B20028D8D0E5E707200C
:106FC000E3E700BF58290020482900203829002085
:106FD000B96D02003C29002040290020D96E020032
:106FE00074B1020070B5084D084E00242B789C4205
:106FF00001D3002070BD3368012113F8340001F083
:1070000093FC0134F2E700BF382900205829002002
:1070100073B5114D114E00242B789C4215D30023DB
:107020000DF107008DF8073000F07AFA0C4B0021C3
:107030000020C3E900019DF8070000F095FA094817
:1070400002B0BDE8704000F061B9336813F8340055
:1070500001F0B0FC0134DFE7382900205829002076
:1070600040290020102300201FB50021039001AA11
:1070700044F20100CDE9011100F004F805B05DF81B
:1070800004FB000038B572B6FFF718FDFFF790FB60
:107090000028FBD1104B114C114D1249E41AE408A1
:1070A000240444F00100FFF7CFFCD5F8F030DB07F3
:1070B00000D500BE0C4944F00200FFF7C5FCBFF349
:1070C0004F8FEA68094B02F4E0621343EB60BFF3B1
:1070D0004F8F00BFFDE700BFB4AF0200DCAF02007E
:1070E00000ED00E078B1020084B102000400FA056E
:1070F00010B5D0E90243D1E90202A04272EB0303CA
:107100002CBF0120002010BD08B50A4800F05FFB2D
:10711000094AD2E90031C018084BD3E9002341F1F4
:107120000001904271EB030303D210F1807041F132
:10713000000108BD3023002060290020D82900204C
:1071400037B505460C460A4801A900F074FB60B14A
:107150000570446001A9064800F097FB18B1054886
:1071600000F03AFB002003B030BD0420FBE700BF75
:10717000C429002030230020294B73B51E78044613
:107180001EB90026304602B070BD0028F9D0FFF7C6
:10719000BBFFD4E902239042994139D300230DF17A
:1071A00007008DF8073000F0BBF923692BB94FF0C9
:1071B000FF324FF0FF33C4E902239DF8070000F0CF
:1071C000D3F9D4E90530984700250DF107008DF873
:1071D000075000F0A5F92369C3B1D4E90212B2F156
:1071E000FF3F08BFB1F1FF3F05D05B1842F100023D
:1071F000C4E9023235469DF8070000F0B5F9002DCC
:10720000BFD00848214600F02CFFBBE71D46F2E73F
:10721000B3F1FF3F08BFB2F1FF3FB2D0F1E700BFCB
:1072200068290020A0B1020013B5114B114918685C
:10723000019008231048582200F0EAFA044698B951
:107240000E4A0F4801A900F0B3F9044660B90C4892
:10725000012100F09FFA01230A4A0948194600F06B
:1072600001FA094B01221A70204602B010BD00BF7E
:107270009CB102006C290020C4290020697302001F
:1072800030230020FFFF7F006829002030B56AB15D
:1072900003684FF0FF344FF0FF355A614A1E5142E8
:1072A000C3E9024551411961002030BD0720FCE7C8
:1072B000F7B5044600250DF1070017460E468DF878
:1072C000075000F02DF9D4E90223B3F1FF3F08BFC6
:1072D000B2F1FF3F07D1FFF717FF301841F100016E
:1072E000C4E9020101259DF8070000F03DF955B100
:1072F0002369A76103B126612146002003B0BDE8E0
:10730000F040FFF71DBF284603B0F0BD37B5054676
:1073100000240DF107008DF8074000F001F9D5E9D0
:107320000223B3F1FF3F08BFB2F1FF3F1FBF4FF091
:10733000FF324FF0FF33C5E9022301249DF8070017
:1073400000F012F934B12946012003B0BDE8304005
:10735000FFF7F6BE204603B030BD0000014800F044
:1073600036BA00BF302300202DE9F743064600F06F
:1073700019FA40B1624AD2E9003113F1807341F148
:107380000001C2E900310021304600F01AFA38B19C
:107390005C4C236823B12068FFF7EEFE00232360D6
:1073A0000121304600F00DFA20B1FFF7ADFE564B3B
:1073B000C3E900015548534C01A900F076FA4FF09B
:1073C000FF384FF0FF39A0B9DFF844814D4D4046FA
:1073D00000F05DFE002800F08580D0E90223B3F1C3
:1073E000FF3F08BFB2F1FF3F32D1404600F049FEF7
:1073F000EDE70378012B20D0022B08D1444D28461D
:1074000000F03FFE002877D0C0E90289F7E75BB9BA
:107410004168D1E90223B3F1FF3F08BFB2F1FF3F5A
:1074200002D03B4800F01DFE01A9384800F068FA80
:1074300001A9364800F039FAC5E741682368994246
:1074400002D100232360EFE7314800F023FEEBE791
:10745000296891B12968D1E9020182428B412FD27A
:107460002B68D3E90223B3F1FF3F08BFB2F1FF3F1E
:1074700003D02968404600F0F4FD404600F001FECC
:10748000D0E902490746FFF73FFE201A69EB0109E0
:10749000012879F1000318DBB0F5350F13D3FFF79E
:1074A0005DFF1C4A02441C484FF49603002100F083
:1074B000F9F890B92B6813B9304600F0CBF82F607B
:1074C00003B0BDE8F0832246EDE71348002100F049
:1074D0006EF93846FFF750FE01E00D28F9D0002381
:1074E0002B6074E7074B1B68002BE9D1304603B0D3
:1074F000BDE8F04300F0B2B8084B01221A7093E7E0
:1075000060290020E0290020D8290020C42900207B
:10751000A0B10200FFFFB400302300206829002042
:1075200070B5EFF3108672B60C4A946801239CB9CB
:1075300093600B4B0B4DD3F8801029401160C3F8BA
:107540008050D3F8841051604FF0FF32C3F884208C
:10755000047006B962B670BD0370FAE7E429002032
:1075600000E100E0FC06FFBD084B9A6810B55AB177
:1075700050B9EFF3108172B6054A1C6814605C685C
:107580005460986001B962B610BD00BFE4290020C4
:1075900000E100E0435882B03BB100234350435820
:1075A0000193019B012002B070471846FBE70000E1
:1075B000F8B5204B4479204E43F824201F4A204B35
:1075C00006EBC4049B1A2279DB081B0432B143F09A
:1075D00002001C49FFF738FA0820F8BD02680C8841
:1075E000C2F8084590F904508A7804795201002DB8
:1075F000D2B219DB14494F1987F8002301226D0913
:1076000004F01F0402FA04F441F82540427906EB25
:10761000C201012446F832000C7143F003000B490B
:10762000FFF712FA0020D8E7094904F00F040A55C1
:10763000ECE700BFF8290020F0290020B4AF0200D9
:10764000ECAF0200ACB1020000E100E0CEB10200FC
:1076500014ED00E0036801221A60704703680122FC
:107660005A60704773B501F15005AD000068ADB2C6
:107670004FF480348C400026C0F80843C0F84843DB
:10768000465101F5A8714559019522F07F42019DAF
:1076900040F82120C0F844430BB1C0F8044302B0C5
:1076A00070BD00002DE9F74F0D4622F07F440268BF
:1076B0004FF4803705F150068F408046B60002EB4C
:1076C0008500C2F84873B6B2C2F80873D2F8041540
:1076D00099464FF0000BD0F84035C0F8401542F8FD
:1076E00006B05B1A9259009223F07F43012B009A57
:1076F0004FEA850A0CD1264B4FF4806043F001031A
:107700009847D8F8003043F806B09B590193019B85
:10771000D8F80010D1F80465C1F84473A31B23F016
:107720007F43012B1CD11A4B05F5A875013443F09A
:10773000010341F825404FF480609847D8F80030A5
:10774000D3F804359E4209D1D8F800300020C3F8A0
:107750004473C3F8047303B0BDE8F08F0D20FAE75B
:107760008A44C9F1FF13CAF84045D1F80405221A2A
:10777000013A22F07F4203F57F439342EED3002A81
:10778000E2D10134CAF84045D1F804359842DAE72D
:10779000E0B1020003680222C3F8442309B1C3F830
:1077A0000423704700684FF48271FFF7F3BE4FF473
:1077B000803303FA01F10368C3F84813C3F80813D0
:1077C000704750318900006889B2FFF7E3BE036853
:1077D000D3F804057047000090F90430002B09DB52
:1077E0005A09012103F01F0301FA03F34032024951
:1077F00041F82230704700BF00E100E0024B034A2D
:107800001B681068184700BFF8290020F0290020E5
:1078100010B561B1B2FBF3F403FB1424A4B244B974
:10782000C0E9001484608281C381204610BD0E200F
:10783000FCE70920FAE737B550E8013F9DB2C4895B
:1078400025448489A54228BF2D1B0489A54202BF77
:10785000BFF32F8F002207E0C5EA030540E801547B
:10786000002CE9D14FF001028DF803200193019A19
:107870000A609DF8031001F0FF0321B1006810FABF
:1078800082F003B030BD1846FBE70A884B889A4265
:1078900009D150E8012FC2EA024240E80123002B3F
:1078A000F7D1012070470020704737B550E8023FFC
:1078B0001FFAA3F5C488A54202BFBFF32F8F002291
:1078C0000DE0C48925448489A54228BF2D1BC3EA45
:1078D000054540E80254002CE8D14FF001028DF834
:1078E00003200193019A0A609DF8031001F0FF0341
:1078F00021B1006800EB124003B030BD1846FBE731
:107900000A884B889A4209D150E8022FC2EA2242E3
:1079100040E80223002BF7D1012070470020704778
:1079200001F01F024B090121914000EB830000F0A0
:107930001EB801F01F0301229A404B0900EB83009F
:10794000D14300F02CB84B0901F01F0150F823007F
:10795000C84000F00100704710B5034653E8000F1F
:107960000A4643E8002494F0000FF7D110BD10B58B
:10797000034653E8002F42EA010043E8000494F074
:10798000000FF6D110BD10B5034653E8000F00EA12
:10799000010243E8002494F0000FF6D110BD10B5A9
:1079A000034653E8002F02EA010043E8000494F084
:1079B000000FF6D110BD10B5034653E8002F02EBBF
:1079C000010043E8000494F0000FF6D110BD10B59B
:1079D000034653E8002FA2EB010043E8000494F0B3
:1079E000000FF6D110BD0121FFF7C1BF0021FFF745
:1079F000CABF10B590B1D0E9012301689B1ADBB270
:107A00000A60013BDBB2FF2B026802D1002010713B
:107A100010BD11684C1C14600B70F2E70E20F7E7E4
:107A200037B5054600240DF107008DF80740FFF734
:107A300077FD2A686B68116899420ED9481E10605C
:107A400011F8013CEC68298A01FB0344AB68117909
:107A50001B1ADBB2994238BF13719DF80700FFF77C
:107A600083FD204603B030BD37B5054600230DF138
:107A700007000C468DF80730FFF752FD2A6813689F
:107A8000591C1160E968641A298AB4FBF1F41C706E
:107A90009DF80700FFF768FD03B030BD826810B5A0
:107AA00004462AB143690168006998470023A3602E
:107AB00010BD0EB403B5039921B104AB01AA019323
:107AC00000F076F802B05DF804EB03B070470A29C5
:107AD00038B504460D4602D10D21FFF7F8FFA36823
:107AE0002268591CA160D554D4E901329A4204D3CA
:107AF0002046BDE83840FFF7D1BF38BD2DE9F84F2B
:107B00009846DDE90A43154682460F460A464FF07D
:107B10000109AA420FD2C14538BFC14613F0010B7B
:107B200001D16CB900240126B8F1010F1BD908F16D
:107B3000FF386E43F8E709F10109B2FBF5F2E8E717
:107B40009B070ED5B8F1000F0CBF30262026A145AB
:107B5000E9D2013C31465046FFF7B9FF002CF6D17F
:107B6000E0E72026F3E7B7FBF6F39D42E1D9DFF823
:107B70003C80B7FBF6F3504618F8031006FB13776A
:107B8000FFF7A5FF3346AB42B6FBF5F6F1D2BBF1EA
:107B9000000F02D00CB1A14501D3BDE8F88F202120
:107BA0005046013CFFF793FFF4E700BFE6B1020047
:107BB0002DE9F74F054617468846002900F03E811B
:107BC00018F8011B49B92B7B002B00F037812846A0
:107BD00003B0BDE8F04FFFF761BF252940F0B78043
:107BE000002698F800302D2B424608F1010823D0DA
:107BF000302B24D02B2B25D000242A2B02F101017D
:107C000023D13B681A1D1B683A601C440A4613784E
:107C10002E2B26D101324FF0000A104610F8011B1E
:107C2000A1F1300CBCF1090F1DD80A2303FB0A1384
:107C3000A3F1300A0246F0E746F00106D1E746F02C
:107C40000206CEE746F00406CBE711F8013CA3F1AB
:107C500030000928DBD80A2202FB0434303C0A46F3
:107C6000CBE74FF0000A12F8011B01F0FB00682877
:107C70009046F8D0782909D86F290CD8632962D0AA
:107C800022D8252963D0582900F0888098F8003040
:107C9000002B95D197E770390829F7D801A353F83D
:107CA00021F000BF177E02008D7C02008D7C020057
:107CB000AD7D02008D7C02008B7D02008D7C020078
:107CC0008D7C02009D7D0200642901D06929DDD1EF
:107CD0003A68D2F80090111D89EAE9723960A2EB86
:107CE000E9724FF0010B092A35DCD34538BFD34682
:107CF0002CB1B9F1000F01DB720700D5013CB307CD
:107D000002D5BAF1000F03D0F00701D44CBB002418
:107D1000B9F1000F2DDAC9F100092D212846FFF72E
:107D2000D6FE06F00302022A04D1BAF1000F01D1F7
:107D30001CBB0024CDE9004653460A22494628468A
:107D4000FFF7DCFEA2E73B681A1D19783A60284667
:107D5000FFF7BDFE9AE70A230BF1010BB2FBF3F22A
:107D6000C1E7A345D4D220212846013CFFF7AFFE4E
:107D7000CCE77107D5D52B21D0E7A345DAD2302146
:107D80002846013CFFF7A3FED2E73968CDE900465B
:107D90000A1D3A6053460A220968D0E739680A1D6D
:107DA0003A60CDE9004653461022F5E73B681A1DBC
:107DB0003A6016F00106D3F8009024D1B9F1000F13
:107DC00003D0484603F094F80646B4421DD809F1A2
:107DD000FF3919F8011F00293FF458AF2846FFF773
:107DE00076FEF6E728460136FFF771FE19F8061011
:107DF0000029F7D1A642BFF449AF20212846013C13
:107E0000FFF765FEF6E70026F0E720212846013C53
:107E1000FFF75DFED9E73B681A1D3A60302128461E
:107E20001C68FFF754FE78212846FFF750FE002219
:107E30000823CDE900322146102280E703B0BDE8D7
:107E4000F08F00BF2DE9F84FB0F806A04579D2F8C1
:107E500000B09DF828900AFB05F5043D88460BEB21
:107E60000301A94203F1040488BFA5EB030BB4FB93
:107E7000FAF607460AFB1644C2F800B04EB9AAEB60
:107E800004055D4528BF5D46BBF1000F04D1BDE888
:107E9000F88F3F68013EF1E7043408EB06003C44EC
:107EA0002A46B9F1000F0DD02146ABEB050B02F0CD
:107EB000C3FFDA452E443F6855464FF0000428BF03
:107EC0005D46E1E701462046EFE7FFF792BDF8B5D2
:107ED00046790146721E0546002393422D6803D35E
:107EE0000024A64202D8F8BD0133F6E70F68284601
:107EF000FFF7BAFD01343946F3E72DE9F843068A66
:107F0000CD1C0746FFF78CFD043E35440446B5FB07
:107F1000F6F5F0B14FF48073EDB28380C680013D79
:107F2000076081464FF00008A84512D23846FFF797
:107F300077FD064648B163790133637108F10108A2
:107F4000C9F8000007608146EEE72046FFF7BFFF53
:107F500034462046BDE8F88301210430FFF72BBDED
:107F600010B5012104460430FFF731FDC0B220B93D
:107F70002046BDE81040FFF7AABF10BD1FB5039211
:107F80000022009203AAFFF75DFF05B05DF804FB35
:107F90001FB503920122009203AAFFF753FF05B019
:107FA0005DF804FB41DF7047064B10B500241C70E0
:107FB000054B1C60BFF35F8F0449054800F03BF898
:107FC000204610BD042A0020082A002000B202002A
:107FD000FC29002007B500230DF107008DF80730BC
:107FE000FFF79EFAF1EE103A23F09F03E1EE103A0C
:107FF000BFF35F8F0A4B4022C3F884219DF807002E
:10800000FFF7B2FA02F064FD20B103B05DF804EBB3
:10801000FFF7C8BF20BF40BF20BF03B05DF804FB1F
:1080200000E100E0836800225A60C3E904229A60FC
:10803000DA601A6070470B684A684360934208BF71
:108040000023016008BF43607047436843B1026882
:10805000916852680B449342436004BF002343601D
:10806000704770B5446806460D46206818B1B3687D
:108070002946984718B923682B60256070BD24688D
:10808000F3E74368186808B102681A6070474368EC
:10809000186870474368186800B97047884203D170
:1080A00002681A600120704703460068F4E7000088
:1080B00010B50D49A1F59472914201D800200FE04E
:1080C0008C1AE30F03EBE4035B1002EBC30452F8DA
:1080D0003330834205D802D204F10802ECE760682D
:1080E00010BD2146E8E700BF0CB7020008B5FFF756
:1080F000DFFF024B002808BF184608BDCFB50200BD
:108100004FF08053D3F83001421C04BF4FF070434E
:1081100093F8E00F831F5842584170474FF0704367
:1081200093F8E02F062A09D1D3F8E83FC3F30313ED
:10813000033B042B02D8024AD05C704700207047F2
:108140001BB70200024AD2F80034002BFBD0704764
:1081500000E0014010B5FFF7D3FF40B14FF080536E
:10816000944AD3F82433C3F30423C2F84035FFF70D
:10817000D5FF10B1904B914A5A67FFF7C1FF48B144
:108180004FF080534FF08042D3F84432C3F3423370
:10819000C2F83C35FFF7C2FF30B1894AD2F8FC3053
:1081A00023F08073C2F8FC30FFF7AAFF40B14FF014
:1081B00080430022C3F80C21C3F81021C3F83825EE
:1081C000FFF7ACFF20B14FF080430322C3F8A02596
:1081D000FFF7A4FF60B17B4B0522C3F810260122F4
:1081E000C3F888260022C3F818263F22C3F81426B5
:1081F0004FF08053D3F83021511C09BF4FF070432A
:10820000D3F8343193F8E02FD3F8E83F08BFC3F335
:108210000313062A4DD1033B042B03D86A4AD35CCF
:10822000002B46D04FF08052684BD2F80414C3F8AC
:108230002015D2F80814C3F82415D2F80C14C3F88A
:108240002815D2F81014C3F82C15D2F81414C3F85A
:108250003015D2F81814C3F83415D2F81C14C3F82A
:108260004015D2F82014C3F84415D2F82414C3F8EA
:108270004815D2F82814C3F84C15D2F82C14C3F8BA
:108280005015D2F83014C3F85415D2F83414C3F88A
:108290006015D2F83814C3F86415D2F83C14C3F84A
:1082A0006815D2F84014C3F86C15D2F84424C3F80A
:1082B0007025FFF725FF48B14FF080534FF0804203
:1082C000D3F8583203F04F03C2F8E43EFFF718FF2B
:1082D00048B14FF08043D3F80024D20744BF6FF079
:1082E0000102C3F800244FF08053D3F83021062A4E
:1082F0000ED1D3F83431033B042B02D8344AD35C7B
:1083000033B1344AD2F83C3743F48063C2F83C3787
:108310002B4AD2F8883043F47003C2F88830BFF398
:108320004F8FBFF36F8F4FF08053D3F83021062A61
:108330000FD1D3F83431033B042B02D8264AD35C47
:108340003BB14FF01023D3F808224FF08043C3F81D
:1083500058254FF01023D3F80022002A03DBD3F86E
:108360000432002B22DA1D4901234FF01020C1F8FE
:1083700004351524FFF7E6FEC0F80042FFF7E2FEE1
:10838000C0F80442FFF7DEFE0023C1F80435FFF712
:10839000D9FEBFF34F8F0A49114BCA6802F4E0625D
:1083A0001343CB60BFF34F8F00BFFDE70D4B0E4A69
:1083B0001A6010BD0030014000C007400DF0ADBA9A
:1083C00000ED00E0005000400CB7020000C000408B
:1083D00011B702000010004016B7020000E0014093
:1083E0000400FA05382300200090D003044B1A5CE7
:1083F000012393404FF0A042C2F80C35704700BFF4
:1084000020B70200044B1A5C012393404FF0A042B6
:10841000C2F80835704700BF20B7020008B5002039
:10842000FFF7F0FF0120FFF7EDFF0220FFF7EAFF63
:10843000BDE808400320FFF7E5BFC20708B50146C5
:108440000CD54FF0A0430322C3F84427C3F84827B4
:10845000C3F84C27C3F85027FFF7E0FF8B070AD576
:108460004FF0A0430C22C3F83427C3F83827C3F8D1
:108470003C27C3F8402708BD38B5074C051E04F15A
:10848000080318BF1C4623682BB11A6822605B687A
:1084900028469847F7E738BD142A002020B9054B35
:1084A00001225A70FFF7E8BF012802D1014A9070FB
:1084B000F8E770470C2A002020B9034B01225A70BC
:1084C000FFF7DABF704700BF0C2A002038B50E4C0A
:1084D0002378B3B90D486360A3602361E36000F0C3
:1084E000E7F8054602F0F4FA08B900F0EDF80123C8
:1084F0002370074BD3F800340BB10123A370284637
:1085000038BD8525F5E700BF0C2A00209D840200B8
:108510000000014037B50D4C00230DF107008DF828
:108520000730FEF7FDFFE368013BE360E36833B922
:10853000074BD3F8005415B900F0D8F8A5709DF892
:108540000700FFF711F803B030BD00BF0C2A002070
:1085500000000140012813B50CD0032820D038B901
:10856000134B0122C3F88020BFF34F8FBFF36F8FEF
:1085700002B010BD0F4C00230DF107008DF807303D
:10858000FEF7CEFF23780BB9FFF7A0FFE3689DF855
:1085900007000133E3600123A370FEF7E5FFE7E77F
:1085A00000F092F802B0BDE81040FFF7B3BF00BF83
:1085B00000E100E00C2A00201FB503788DF80030A0
:1085C0004368019383688DF80830C368054A0393B4
:1085D000054B684653F8213052F82110984705B0F2
:1085E0005DF804FB202A0020242A00201FB5037810
:1085F0008DF800304368019383688DF80830C368B4
:10860000054A0393054B684653F8213052F8211070
:10861000984705B05DF804FB202A0020242A00209A
:10862000F0B5194B90F800C091F81DE043F82C20EC
:10863000164B16460A6943F82C20154B03F80CE03C
:108640000C4607460FCC89B06D460FC594E80F0065
:1086500085E80F00CDF810C0BEF1000F09D0002E44
:108660000C4A694608BF3246381D00F0A5FD09B026
:10867000F0BD002E084A694608BF324607F10C00DB
:1086800000F07CFBF3E700BF242A0020202A002012
:10869000282A0020B9850200ED85020000F1804003
:1086A000002382B0036003680193019B02B070470E
:1086B000044A137923B9012110609180184670474C
:1086C000852070472C2A0020074B1A68D20704D453
:1086D000C02283F8002301221A604FF08043012258
:1086E000C3F81825704700BF00E100E04FF080425A
:1086F00008B50223C2F808334FF48270FFF7CEFFAB
:108700000123D360D2F81834DB03FBD408BD00008A
:108710004FF0804110B5D1F8003163B14FF4807053
:10872000FFF7BCFF0D4B58790122C1F8082310B99F
:108730005A711B6898474FF08042D2F8043163B1F8
:108740004FF48270FFF7AAFF0223C2F80833034BED
:10875000BDE810401B680120184710BD2C2A0020DE
:1087600000F1804000F5C040002382B00360036840
:108770000193019B02B07047800000F1A040D0F847
:10878000002722F44032C0F80027D0F8003743EA2F
:108790000141C0F800177047054B4FF0FF32072822
:1087A00043F8202084BFC01880F84820704700BFDD
:1087B000342A002010B5184991F8583053BB4FF0B7
:1087C000FF3222FA03F0C00748BFC81803F10103C3
:1087D00048BF80F83020202BF3D10024E0B20134D0
:1087E000FFF7DAFF0C2CF9D10C4B0022C0204A65B0
:1087F00083F80603402018604FF4BE70FFF7B0FF07
:10880000074B4FF00040C3F80403012381F85830B0
:10881000104610BD0820FCE7342A002000E100E0EB
:1088200000600040034B93F85800003818BF012047
:10883000704700BF342A0020F0B5394E331893F941
:108840003030002B69DA8D78C5F34005002D0BBF61
:10885000082300230C240824A34201D10420F0BDE6
:1088600056F82370013743D137185CB246F82320FD
:1088700087F8304015B9F21882F848008A78550711
:1088800016D4D70736D5820002F1A042D2F800579D
:1088900025F00205C2F80057224FC50800F0070C6A
:1088A000012202FA0CF217F805C042EA0C027A55CE
:1088B0008A780D7812F0020225D09B0003F18043E4
:1088C00003F5C0430002D3F8102522F4473222F406
:1088D0004072C3F810252D04D3F8102500F4F85089
:1088E00005F4403528431043C3F810050020B6E7CF
:1088F0000133B1E74D7800F5E0724FF0A047AD00CD
:1089000047F82250C8E7083C46FA84F494F850002F
:1089100040EA851584F85050E8E708209FE700BF3B
:10892000342A0020882A002038B5204C251895F9D3
:108930003020072A18DD083A44FA82F494F85030BF
:108940009B09032B0BD14FF0A043D3F81015C14066
:1089500001F001010231BDE83840FFF70DBF012BE6
:108960000CBF02210321F6E7D3B2072B1DD89300D9
:1089700003F1804303F5C043D3F8100540F0010034
:10898000C3F8100502F1400040B2800080B2FFF74A
:10899000E7FE51B195F9303054F823302BB1012363
:1089A00003FA02F2024BC3F8042338BD342A002034
:1089B000006000400E4B034493F93020072A02DD8B
:1089C0000021FFF7D9BED3B2072B10D8930003F1D3
:1089D000804303F5C043D3F8101521F00101C3F81B
:1089E0001015012303FA02F2024BC3F80823704763
:1089F000342A0020006000404FF0A043D3F8103527
:108A000023FA00F000F00100704700002DE9F74F55
:108A100000244E4D01944FF48072012102F18043F5
:108A200003F5C04390B21B68012B06D1D5F804337F
:108A30000B4202D0FFF794FE0C430432B2F5907F54
:108A40004FEA4101EAD1414BD3F87C31012B0CD1E3
:108A50004FF4BE70FFF784FE4FF0A04344F0004493
:108A6000D3F820250192C3F82025E3B2D3B1384FC3
:108A700000250126344210D0AB0003F1804303F5FA
:108A8000C043D3F81005D3F8101557F8253023B19B
:108A9000C1F30141C0F3042098470135082D4FEA86
:108AA0004606E7D1002C48DA294D4FF0A048294E60
:108AB0004FF00009012716F9013B5A1C31D0C3F3CE
:108AC000C20208326A44DCB212F8042C03F03F0AF6
:108AD00003F0070307FA03F31A4222D00AF5E07302
:108AE000504658F82330C3F3014BBBF1020F0CBFC3
:108AF00003210221FFF740FE07FA0AF3C8F82035E8
:108B000005EB0A0393F9303055F823304BB1A10936
:108B1000032904D0BBF1020F12D1012901D1504623
:108B2000984709F10109B9F1040FC4D1D8F82035EB
:108B30000193C8F82035002BB9D103B0BDE8F08F00
:108B4000BBF1030FEDD10229E8E700BF0060004050
:108B5000342A0020842A0020014B1B68184700BFDC
:108B6000902A00200E4B984237B50C4602D00020C8
:108B700003B030BD00230DF107008DF80730FEF77C
:108B8000CFFC084B1D7915B901221C601A719DF8A4
:108B90000700FEF7E9FC002DE9D01120E8E700BF4F
:108BA00000200040902A0020034B984201BF034B55
:108BB00000221A601A71704700200040902A00209D
:108BC0000023435082B043580193019B02B0704789
:108BD0000A4610B54FF48E71FFF7F2FF136A9168E1
:108BE000C95C136A01331362C0F81C1510BD8B6990
:108BF0000A4610B54FF4847123B9FFF7E1FFD0F8AE
:108C0000183510BDFFF7DCFF536AD168D0F818059E
:108C1000C854536A01335362F3E700001FB50123C0
:108C20008DF80030044BCDE90110D3E900126846FD
:108C3000904705B05DF804FB982A002030B54D4DF3
:108C4000D5F804339A0585B051D5D5F82431002BD9
:108C50004DD04FF492712846FFF7B2FF4FF40173E5
:108C6000C5F80833444B93F829200AB901226A60F9
:108C7000404902228DF80020D1F88024C1F88024D8
:108C800003929A690292DA6801920022C3E90622ED
:108C90006846D3E9001290473648D0F81C315BB1E2
:108CA000354A5169136A99424DD992F82830002B00
:108CB00049D11146FFF78CFF2E48D0F84431002BE4
:108CC00056D04FF4A271FFF77BFF2B4B93F829206E
:108CD0000AB1012202609A69002A49D0586AD9680B
:108CE00000229A6105B0BDE83040FFF797BFD5F884
:108CF00004335B07D0D5D5F80831002BCCD01E4CFF
:108D00001C482146FFF773FF636AA2699A42C3D1E8
:108D1000E369E1684BB1A3612369E3600023606A02
:108D2000E3616362FFF77AFFB6E794F829300BB985
:108D300001236B600F4B4FF40172C3F8082300232B
:108D4000606AA361EEE70B484FF48E71FFF738FFBE
:108D50005369002BB0D051690291002391688DF8BE
:108D60000030019153616846D2E900139847A3E7A8
:108D700005B030BD00200040982A00202DE9F843BE
:108D8000534D90F804802C2303FB0853064693F8B8
:108D90002A300C469146002B40F096804D490068E1
:108DA000FFF7E0FE0746002840F090802268306818
:108DB000511C0BD04FF0A04101239340C1F808355E
:108DC00002F5E0734FF0030C41F823C061684B1CBF
:108DD0001FBF01F5E0734FF0A04C4FF0000E4CF8B0
:108DE00023E0A369C0F8243594F814C0637DBCF176
:108DF000010F4CEA0303C0F86C35C0F81415C0F835
:108E00000C251DD1A268531C1FBF02F5E0734FF063
:108E1000A0414FF0000C41F823C0E368591C0BD06F
:108E20004FF0A04C01219940CCF8081503F5E071F2
:108E30004FF0030E4CF821E0C0F80835C0F81025BB
:108E40002C2202FB08F2AB18C3F804902369AB5044
:108E5000B9F1000F20D04FF48E71247FFFF7B0FEE0
:108E60004FF4A2713068FFF7ABFE32681A4BC2F8BC
:108E70000433130B42F307326101002AC9B21EDB2F
:108E80001648841884F800130121520903F01F03C7
:108E900001FA03F340F8223033680422C3F80025B6
:108EA0002C2303FB08530022C3E9062283F8292060
:108EB0005A61012283F82A203846BDE8F883084A1F
:108EC00003F00F03D154E7E70827F5E71127F3E78D
:108ED000982A00203D8C02008000020000E100E0A2
:108EE00014ED00E0F8B503680579304C0022C3F8B2
:108EF00000252C2202FB05425268A2B12C4AC3F87D
:108F000008231A0B43F30733002B0CDB02F01F017D
:108F10005B0901228A402033264941F82320BFF310
:108F20004F8FBFF36F8F0068D0F80C65D0F8141521
:108F3000D0F80835D0F810254FF0FF37BE42C0F802
:108F4000147518BF06F5E076C0F80C75C0F8087502
:108F5000C0F810751EBF4FF0A0474FF0020C47F845
:108F600026C04E1C1FBF4FF0A04601F5E07102273E
:108F700046F82170511C1FBF4FF0A04102F5E0726E
:108F8000022641F822605A1C1FBF03F5E0734FF020
:108F9000A042022142F82310FFF706FE2C2303FB18
:108FA0000544002384F82A306360F8BD982A002025
:108FB0008402020000E100E00279044B2C2101FB55
:108FC00002335869003818BF01207047982A0020E2
:108FD0002DE9F84F064690F8048089469246FFF73F
:108FE000EBFF044600283CD1204F2C2508FB057BD5
:108FF0004FF48E71CBF814A0CBF80890CBF820007A
:109000008BF828003068FFF7DBFD306801238360B0
:109010005946FFF7DDFDDBF804305D461BBB3068C9
:10902000DBF814402B6A9C4211D83368D3F81C211A
:10903000002AFBD00122DA6000202C2303FB0877F2
:1090400000237B61BDE8F88F95F828303BB9D0F854
:109050001C31002BF8D05946FFF7BAFDE2E70F208C
:10906000EBE71120EEE72046ECE700BF982A00204E
:109070000023435082B043580193019B02B07047D4
:109080001FB501238DF80030044BCDE90110D3E961
:1090900000126846904705B05DF804FBC42A002022
:1090A0007FB5434AD2F82461002E60D010464FF4B9
:1090B0009271FFF7DDFF02238DF80030D2F8803483
:1090C000C2F880340393D2F83C350293394BDA6806
:1090D00001920022C3E906226846D3E900129047B4
:1090E0003348D0F8443173B14FF4A271FFF7C0FF99
:1090F000304B9A693AB10022C3E90622D968D0F808
:109100003C05FFF7BDFF2A48D0F82031ABB14FF442
:109110009071FFF7ADFF0123C360264B5A6962B11E
:10912000D0F84C150291002299688DF80020019129
:109130005A616846D3E9001290471D48D0F858316B
:109140009BB14FF4AC71FFF793FF1A4B5A6962B1B0
:10915000D0F84C150291002299688DF800200191F9
:109160005A616846D3E90012904704B070BDD2F846
:109170001031002BB4D04FF488711046FFF778FF00
:109180000C4BD2F83C0599698842A9D1DC69D968B1
:1091900064B1D2F8005225F02005C2F800521A69D5
:1091A0009C61DA60DE61FFF76BFF99E79C61FAE78B
:1091B00000200040C42A00202DE9F8435A4E90F8C0
:1091C0000480242303FB0863044693F820300D46F3
:1091D0009146002B40F0A38054490068FFF7C2FC81
:1091E0000746002840F09D802A682068511C0BD05B
:1091F0004FF0A04101239340C1F8083502F5E07318
:109200004FF0030C41F823C069684B1C1FBF01F5E8
:10921000E0734FF0A04C4FF0000E4CF823E0AB6928
:10922000C0F8243595F814C06B7DBCF1010F4CEAF1
:109230000303C0F86C35C0F80C25C0F814151DD117
:10924000AA68531C1FBF02F5E0734FF0A0414FF016
:10925000000C41F823C0EB68591C0BD04FF0A04C18
:1092600001219940CCF8081503F5E0714FF0030E89
:109270004CF821E0C0F80835C0F81025242202FB84
:1092800008F2B318C3F804902B69B350B9F1000F7A
:109290002FD04FF488712A7FFFF7EAFE20684FF441
:1092A0009071FFF7E5FE20684FF49271FFF7E0FE42
:1092B00020684FF4A271FFF7DBFE4FF4AC71206819
:1092C000FFF7D6FE23681A49C3F80413190B43F3BA
:1092D00007335201002BD2B21CDB1648C51885F8A3
:1092E000002301225B0901F01F0102FA01F140F89D
:1092F000231023680822C3F80025242303FB0866F3
:109300000023C6E906337361012386F8203038460E
:10931000BDE8F883084B01F00F015A54E9E708272C
:10932000F5E71127F3E700BFC42A0020A19002004F
:109330001003420000E100E014ED00E0F8B5444CF9
:109340000579242303FB054302465B680068ABB143
:10935000404BC0F8083340F30733002B4FEA10317D
:109360000CDB01F01F065B090121B14020333A4EAE
:1093700046F82310BFF34F8FBFF36F8FD0F8003242
:1093800023F02003C0F80032242303FB05439B692C
:109390002BB14FF4A271FFF76BFE012343604FF432
:1093A000AC71FFF765FE0123C360242303FB054373
:1093B000D0F858110029FBD0996919B1D0F844119F
:1093C0000029F5D00023C0F800351368D3F80C75D8
:1093D000D3F81465D3F80825D3F810154FF0FF3CE7
:1093E0006745C3F80CC518BF07F5E077C3F814C587
:1093F000C3F808C5C3F810C51EBF4FF0A0434FF017
:10940000020C43F827C0771C1FBF4FF0A04306F59E
:10941000E076022743F826704E1C1FBF01F5E0716D
:109420004FF0A043022643F82160531C1FBF4FF0AA
:10943000A04302F5E072022143F82210FFF7B4FBCB
:10944000242303FB0544002384F820306360F8BD27
:10945000C42A00201003420000E100E00279044B1E
:10946000242101FB02335869003818BF01207047DE
:10947000C42A002001F06043B3F1005F2DE9F047FA
:109480000646884692463BD190F80490FFF7E6FFE7
:109490000446002836D11D4F3068242505FB097588
:1094A0004FF49071C5F814A0C5F80880FFF7E0FDEF
:1094B0004FF4AC713068FFF7DBFD33686A69A96867
:1094C000C3F84415C3F8482501229A606A68DAB9DE
:1094D000D3F82021D3F858011AB90028F8D00F206A
:1094E00007E00028FBD10122DA60D3F85821002AD6
:1094F000FBD0242303FB097700237B61BDE8F087C1
:109500001020FBE71120F9E72046F7E7C42A0020E6
:1095100072DF704773DF704776DF70477ADF70471E
:109520007CDF70477FDF70478FDF7047B1DF7047A8
:10953000FDF79ABD08B5064B01211878FFF7EAFF41
:1095400008B1FDF791FDBDE808400220FEF74EBFCF
:109550005423002013B5044601F06AF82388212B18
:1095600058D007D8112B32D0132B4BD0102B0CD046
:1095700002B010BD522B5BD0562B01D03B2BF7D144
:10958000A0881321FFF7C8FF1AE02D4B2D482E4964
:10959000C01AC008000440F00300FDF755FA03208C
:1095A000FEF724FF0220FEF72DFF284BA188284854
:1095B000198000F0DBFF08B1FDF756FDFDF712FD45
:1095C0000028D5D002B0BDE81040FDF74DBD1C4BC2
:1095D0001C482049C01AC008000440F00300FDF7F1
:1095E00033FA0320FEF70EFF184B4FF6FF721A8076
:1095F000FDF70EFD08B1FDF737FD02B0BDE81040E4
:10960000FFF798BF114800231A4685210088FFF70D
:1096100089FFD5E70023A0888DF8043001A98DF8D3
:109620000530FFF781FF0028A2D0FDF71DFD9FE761
:10963000064800231A4619460088FFF777FFBFE760
:10964000B4AF0200DCAF020046B702005623002090
:10965000642B002050B7020008B503784BB9054BC6
:109660003B211888FFF758FF18B1BDE80840FDF707
:10967000FBBC08BD562300200D2810B50C4618D1A0
:109680000E4B0F480F49C01AC008000440F00300F9
:10969000FDF7DAF90C48214600F0ECFF30F0080243
:1096A0000BD043F20202904207D043F201429042B3
:1096B00003D0BDE81040FDF7D7BC10BDB4AF020029
:1096C000DCAF02005DB70200E82A0020FDF7CCBC49
:1096D00000B597B01A4B1B480093694600F034FF61
:1096E00008B1FDF7C1FC4022002106A801F0CDFB26
:1096F00006A8154900F033FD012306A88DF8543063
:1097000001F08CF808B1FDF7AFFC0021102202A88F
:1097100001F0BBFB0D4B01934FF00133049340F27A
:109720000113ADF814300A48012301A98DF8163051
:1097300000F0B7FF08B1FDF797FC17B05DF804FB28
:1097400031950200642B00207DB7020031A6020093
:10975000E82A002000B5012097B0FEF76EFE022037
:10976000FEF76BFE4FF480410020FCF7CFFF08B1FD
:10977000FDF77AFCFCF708FF504840F23332012134
:10978000FDF7D8FB08B1FDF76FFCFDF74DFD08B103
:10979000FDF76AFCFEF708FC08B1FDF765FC01F077
:1097A00059F908B1FDF760FC002307A901200793D0
:1097B00001F0DCF908B1FDF757FC07A801F078FAD1
:1097C00008B1FDF751FC11233D498DF80430092201
:1097D00001A8FFF7A5FE08B1FDF746FC0023ADF890
:1097E00020305023ADF81C30A023ADF81E3007A860
:1097F0004FF4C873ADF82230FFF790FE08B1FDF7C3
:1098000033FC3048002100F09FFD08B1FDF72CFC2F
:10981000FFF75EFF3C22002107A801F036FB2A4A31
:1098200002238DF81C3052F8041B40F2016307A894
:10983000ADF81E3000F0D0F808B1FDF715FC182285
:10984000002101A801F021FB01238DF819308DF8CA
:1098500004301D491D48402301AA0393FFF758FE19
:1098600008B1FDF701FC1422002107A801F00DFB4F
:109870004FF4A0334FF4A022CDE9082303238DF841
:109880002830134B0C9307A8124B0D9300F06EFB7E
:1098900008B1FDF7E9FB104B10481149C01AC00888
:1098A000000440F00300FDF7CFF8FFF743FEFCF79C
:1098B0007FFF0028FBD1FEF78DFBF8E73C2300205B
:1098C00076B70200502B00204423002054230020B0
:1098D00059960200CD960200B4AF0200DCAF020040
:1098E00080B702006DDF704779DF70477DDF70471A
:1098F00064DF70472DE9F04F85B000250E9CBDF860
:109900003CB0B4F800A00191074690461E46A94617
:109910003A884A450DDC45B12388013BA3EB0A0395
:109920009BB2FF2B3AD806F80A30002005B0BDE8FC
:10993000F08F7A6852F82900039000220DF10B0194
:1099400003A8FFF7D5FF0028F0D19DF80B20424572
:1099500021D12288002D14BF0020022002EB080133
:10996000014459451ADC3DB9013292B2019B228073
:10997000B35422880132228022880DF10B01324437
:1099800003A8FFF7B5FF0028D0D121889DF80B2050
:109990000A442280012509F10109B9E70C20C5E735
:1099A0002DE9F341089FBDF824801546CDE90078E4
:1099B000022204461E46FFF79DFF50B9334610228F
:1099C00029462046CDE9087802B0BDE8F041FFF70E
:1099D00091BF02B0BDE8F0812DE9F04F0023178858
:1099E000138090F82D3085B006460D4614465BB3C3
:1099F000082F01D80C2028E102A8FFF773FF0028E8
:109A000040F023812388DDF809100822EA542388D6
:109A100001339BB21B222380EA54238801339BB27B
:109A2000EA182380E950BDF80D30938023889DF813
:109A3000082006339BB212F0FE0218BF01222380D9
:109A4000EA54238801332380B378FBB1238804339D
:109A5000BB42CFD802A8FFF747FF002840F0F580AF
:109A600023880322EA54238801339BB219222380DE
:109A7000EA542388BDF8082001339BB2E9182380FB
:109A8000EA54120A4A70238802332380F2789AB18A
:109A90002388D91CB942ADD80221E9542388013367
:109AA0009BB201212380E95423880B449BB223807D
:109AB000EA5423880B4423807268AAB12388D91CF6
:109AC000B94297D8022192F90020E9542388013342
:109AD0009BB20A212380E954238801339BB223805F
:109AE000EA542388013323803389002B40F0A1807E
:109AF000338A5BB1CDE900472B460722032106F1EB
:109B00001000FFF74DFF002840F09F80338B5BB1C2
:109B1000CDE900472B461522142106F11800FFF766
:109B20003FFF002840F09180326A002A40F0908088
:109B3000D6F82480B8F1000F30D0B8F8043021886E
:109B4000981C8A1C0244BA423FF654AFFE283FF6E6
:109B500051AF03336B54238801339BB2FF22238020
:109B6000EA54238801339BB22380B8F80020EA54DA
:109B7000E918120A4A702088023080B22080B8F8B2
:109B800004205AB1D8F8081000296BD0284401F0FD
:109B900053F92388B8F804201344238096F82C3016
:109BA000002B40F09880307800284ED03388012B6D
:109BB00058D0228802F1020CBC453FF61BAF0128A9
:109BC00005D17378023313449F42FFF413AF023F71
:109BD000BF1ABFB202A905EB0C00ADF80870FFF781
:109BE00085FE90BB3178BDF80830022900F0B980BD
:109BF00072789A4202D39F4280F0B180012940F0EE
:109C0000B280974293B2C0F0AE80ADF80830082120
:109C1000BDF80830FE2B3FF6EDAE22880133AB5481
:109C20002288013292B22280A954228813442380D0
:109C30000BE0CDE900472B460622022106F1080081
:109C4000FFF7AEFE00283FF453AF05B0BDE8F08F3C
:109C5000B4F800C00CF10603BB423FF6CBAE11884E
:109C6000052901D80720F0E76FF4486E01EB0E03D9
:109C70009BB24FF27D3E7345F4D95388052BF1D941
:109C80006FF44860181880B27045EBD94FF6FF703A
:109C9000814201D09942E5D8052305F80C3023888C
:109CA00001339BB212212380E954238801339BB2F4
:109CB00023801188E954E818090A41702388023387
:109CC0009BB223805288EA54E918120A4A7023880A
:109CD000023323802CE7B36A002BC3D04FF0000877
:109CE0004FF00C0A4FF0160BB16A5FFA88F20AFBCC
:109CF00002F201EB0209B9F80430981CFE283FF685
:109D000079AE208803332B54238801339BB2238000
:109D100005F803B0238801339BB223808A5AEA54A2
:109D2000E918120A4A702088023080B22080B9F8FF
:109D300004205AB1D9F80810002993D0284401F022
:109D40007BF82388B9F804201344238096F82C204C
:109D500008F101085FFA88F39A42C5D823E7092180
:109D600056E79F42FBD2ADF8087050E775DF7047A9
:109D700076DF70477ADF70477BDF7047034B1A88C6
:109D800082420CBF18460020704700BF8C2B002079
:109D9000024B9B6903B11847704700BF702B00202E
:109DA00073B585B22846FFF7E9FF044638B3174E6E
:109DB000027A337B9A420CD200F10A012846FFF75F
:109DC000D5FFF0B111281AD002B0BDE87040FFF7FE
:109DD000DFBF00230372337C43B13B212846FFF7EA
:109DE000C7FF30F0080301D0FFF7D2FF736933B12A
:109DF00000228DF80420ADF8065001A8984702B063
:109E000070BD237A01332372F9E700BF702B002065
:109E100037B50B46497A0F4A79B9D2E901141D7A50
:109E20000246002D18BF21465868FDF741FA78B167
:109E300003B0BDE83040FFF7ABBF00211972536992
:109E400033B10122ADF806008DF8042001A898472F
:109E500003B030BD702B00204B8802889A4212D884
:109E600042889A420FD380888B8840F2F31188424F
:109E700094BF021A421A9A4205D80844984234BF45
:109E80000020012070470020704700000388122B3B
:109E900070B5014659D004D8102B1ED0112B44D0D8
:109EA00070BD502BFCD12F4BC288DB899A42F7D171
:109EB000038A022BF4D186883046FFF75FFF054600
:109EC0000028EDD001F1120000F045F938BB6868B8
:109ED000FDF71CFA0028E3D009E0C37B012BDFD19A
:109EE0004FF6FF70FFF74AFF054620B90420BDE892
:109EF0007040FFF74DBF1C4A8E8806800023037216
:109F00001368C0F80A305368C0F80E3010310A30B8
:109F1000FFF7A2FF134B6872DB89002BC0D12946E3
:109F20003046BDE87040FFF773BF8088FFF726FF1B
:109F300004460028B4D04068FDF7E8F908B1FFF7FF
:109F400027FF4FF6FF732380AAE786883046FFF786
:109F500015FF05460028A3D008310A30FFF77CFF23
:109F60006872DCE7702B0020A02B0020F8B50646B5
:109F700048B305460FCD154F3C460FC495E8070082
:109F800084E807003068124C3C60B0B1FFF7F2FE85
:109F9000C0B9326813682360536863600D480E4A85
:109FA0004FF6FF7303800D4B40F8043F0021FDF78F
:109FB0006DF9002818BF032004E02046FFF7DCFEFF
:109FC0000028EBD0F8BD0E20FCE700BF702B00206E
:109FD000A02B00208C2B0020A19D0200A82B00208C
:109FE0000AB1FDF79DBCFDF7A4BC73B50191019CBE
:109FF00006466CB100252C46294601A8FDF7A3FCB6
:10A0000018B106EB440301349D800135142DF3D1C2
:10A010003046346002B070BD2DE9F0470388848873
:10A02000103B8CB005460A2B21D8DFE803F0064030
:10A0300020202020202020654700DFF8E880D8F885
:10A040000830DB430093D8F804106846FDF7A7FCFE
:10A05000009901A8FFF7C9FF0DF108090027019B2E
:10A060009F4207D3132C12D90420FCF7FDFF0CB03C
:10A07000BDE8F08739F802AB00260136514608EBFF
:10A080008600FDF756FC1E2EF7D10137E7E71F4883
:10A090002146FDF745FC1E482146FDF741FCEB7BC0
:10A0A000022BE4D11B482146FDF73AFCDFE71748B5
:10A0B00021460CB0BDE8F047FDF73BBC027A1648DC
:10A0C0003F2A4FEA1215214694BF00220122FFF7D2
:10A0D00087FF022D94BF0022012210482146FFF77E
:10A0E0007FFF012D0E4894BF0022012221460CB0B3
:10A0F000BDE8F047FFF774BF037A002BB7D1427A6F
:10A100000548C2F3C0022146F1E700BFD02B002072
:10A11000CC2B0020D42B0020E02B0020DC2B0020B7
:10A12000D82B0020C82B0020AADF7047002301385D
:10A130000B70042806D8DFE800F00306080A0C00BC
:10A1400011230B7070472123FBE73123F9E712231A
:10A15000F7E72223F5E7008800F00100704738B5E3
:10A16000044608460D4600F0C3FE6560208038BDF9
:10A17000F0B58B7891B00C46012B38BF0123002736
:10A180008DF80E3005460B88607CADF80C306946C2
:10A19000ADF800708DF80270FFF7C8FFA07C0DF1DC
:10A1A0000101FFF7C3FF1646237BE27B217D43EAD3
:10A1B000C203227C43EA02139DF80220B94222F036
:10A1C000190203F0190314BF02210121134361F3A3
:10A1D00042031C22394609A88DF8023000F055FED2
:10A1E000637B13F0300F14D00DF10901E07CADF862
:10A1F00008708DF80A70FFF799FF11238DF8083069
:10A200009DF80A30012102AA61F342038DF80A3059
:10A210000E92637B8DF82430A37B8DF825300023CC
:10A22000CDE90633089303AB0493A388ADF81C3043
:10A23000A368CDF814D01BB1E288ADF818200893BC
:10A24000A36973B301A90022ADF804208A701A88AB
:10A25000ADF82C205A88ADF82E205A680D91187B45
:10A260000A92FFF763FFA3690DF10501587BFFF721
:10A270005DFFA3699A7A197A41EAC201DA7A9B7B77
:10A2800041EA02119DF80620002B01F0190122F08D
:10A29000190214BF02230123114363F342018DF815
:10A2A0000610E36903B10C93334604AA09A92846B2
:10A2B000FFF73AFF11B0F0BD90DF7047A5DF7047A0
:10A2C000B5DF70477FB50023ADF80810ADF80A1070
:10A2D0006A4602A90646ADF80C30ADF80E30009380
:10A2E000ADF80430FFF7E8FF054600B3114B124C00
:10A2F000E41AE408FDF7FAFE240444F001040346DE
:10A300000E4932462046FCF7ACFBBDF80020BDF8F4
:10A31000023052EA030103D009492046FCF7A1FBB1
:10A32000BDF804201AB107492046FCF791FB2846E6
:10A3300004B070BDB4AF020004B0020098B70200D0
:10A34000E2B7020021B8020078B14FF017130360A2
:10A350001B2303711723C380038141F61B320023A3
:10A36000016143818281184670470E2070470000CA
:10A3700013B5034680880C46B8B91A88242A00F021
:10A380009B8014D8112A74D0232A00F0A680102AAA
:10A390003ED0A37A4BB1E1880020FFF78FFF002861
:10A3A00040F0A1804FF48073638102B010BD3A2A5F
:10A3B00067D0552AEDD1DB88C988A072172B38BF2A
:10A3C00017238B4228BF0B462381FFF779FF60B12B
:10A3D000FDF78CFE4D4B4E4902464E481B1ADB08DA
:10A3E0001B0443F00100FCF733FBE27A002AD0D1D2
:10A3F0002369002BCDD040F67721ADF802202289C9
:10A40000ADF80010ADF80420694620469847C0E733
:10A41000DB7B0A790A73012B13D0022B14D0E1885D
:10A4200023898B4205D20020FFF748FF70B9012332
:10A43000E372217B637B8B42ABD20020FFF742FFAC
:10A44000A7E70B88E380EAE74B88FBE7112802D1F6
:10A450000123A372EDE7FDF749FE2C4B2E4902467E
:10A460002C481B1ADB081B0443F00100FCF7F0FA30
:10A47000DFE71723CB800B8141F61B3348818B81AB
:10A4800087E75B89CA88934228BF1346172B0A695E
:10A4900038BF17230B8162B1C97A51B140F67721D9
:10A4A000ADF80010ADF80200ADF804306946204662
:10A4B0009047002363816CE71A7A0B694A73002B7B
:10A4C0003FF467AF4DF67A218DF80500ADF8001026
:10A4D000ADF802008DF8042096E7197A237B9942A3
:10A4E00028BF1946AAE711283FF45FAFFDF7FEFD2C
:10A4F000064B0949024607481B1ADB081B0443F0B8
:10A50000010002B0BDE81040FCF7A2BA04B002009E
:10A51000A8B80200B4AF020077B80200B0DF7047FD
:10A5200066DF704710B5002104464088FFF7F8FF4A
:10A53000034608B9237210BD112801D10123F9E7A0
:10A540006368BDE81040184760B159B10378DE2B4D
:10A550000AD00B684360DE2303704FF6FF7343801D
:10A56000002070470E2070470820704728B10378FC
:10A57000DE2B04D14180002070470E207047082058
:10A580007047F0B5054685B00C46002942D000283A
:10A5900040D00B78DE2B3DD182884B889A4204D183
:10A5A0000B7A13B10846FFF7BDFF2B88112B33D070
:10A5B000512B0FD0012B2DD12B7A012B2AD1A98819
:10A5C0006288914226D12046237205B0BDE8F04052
:10A5D000FFF7A8BFAE886388B3421BD1AF79022FC3
:10A5E00018D1AD7B2B1F022B14D8002110226846F6
:10A5F00000F04BFC052D18BF4FF4C0736946304680
:10A6000018BFADF804308DF80070FFF787FF08B170
:10A610006368984705B0F0BD6388AA889A4204BF72
:10A620004FF6FF736380F5E7A8DF7047ACDF704734
:10A63000F9B1F0B10388112B06D0502B07D0102BA5
:10A6400017D18388CB8370474FF6FF73FAE7C3882F
:10A65000CA889A4204D1807C48B10020FDF7C6BE6A
:10A66000CA899A4205D1837C0120002BF6D1FDF7DF
:10A67000C9BE704737B50D46044680B10023ADF81A
:10A68000023001910123C189C08BADF800306A46C8
:10A69000FFF7CCFF08B984F8215003B030BD0E207D
:10A6A000FBE72DE9F0410C468AB00546002800F092
:10A6B0008780002900F084800B68036000230384F6
:10A6C000002343622A1D01204FF42F4369468DF871
:10A6D0000200ADF80030FFF7A7FF064600286BD157
:10A6E00023798DF804300146202202A800F0CDFB2A
:10A6F0004FF44043ADF80830237B8DF819309DF8B6
:10A700001530A88823F00A0343F00A038DF81530AA
:10A71000637B8DF81B3001AFA37B8DF81A304FF0AF
:10A720000118AA1D02A9CDF80C800497FFF720FD9F
:10A7300063798DF804303146202202A800F0A5FB91
:10A740004CF20103ADF808309DF81530A88843F0AD
:10A7500002038DF8153005F10E02E37B8DF81930F8
:10A7600002A9CDE90387FFF703FDA36801933146F2
:10A77000202202A800F089FB4CF20203ADF8083059
:10A780004FF00413CDE90337237C8DF819309DF881
:10A790001530A88823F00A0343F00A038DF815301A
:10A7A000637C8DF81B3005F11602A37C8DF81A30FE
:10A7B00002A9FFF7DDFC064630460AB0BDE8F0818D
:10A7C0000E26F9E7A8DF7047F0B5074689B01446B2
:10A7D0001E460D4611B90846FCF746FC14B9204642
:10A7E000FCF742FC20220021684600F04EFB0223C9
:10A7F0008DF80D30084B0E9A1888ADF80070694638
:10A80000ADF80440ADF8064002958DF81160FFF7F1
:10A81000AFFC09B0F0BD00BF7C2C002030B587B084
:10A8200041F60A035C4AADF80C30044603A9012046
:10A830008DF80E00FFF7C6FF0546002849D1228893
:10A84000002A49D1228952B1544B0093E16894F80F
:10A850003C3042F62420FFF7B7FF002847D1228A78
:10A8600052B14F4B0093616994F83C3042F6252079
:10A87000FFF7AAFF00283AD1228B52B1494B00932F
:10A88000E16994F83C3042F62720FFF79DFF00284D
:10A890002DD1228C4AB1444B0093616A94F83C302C
:10A8A00042F62620FFF790FF08BB228D4AB13F4BAE
:10A8B0000093E16A94F83C3042F62820FFF784FFC9
:10A8C000A8B9236BABB9616B002938D1A36B002BFE
:10A8D00042D1284607B030BD354B0093616894F8EB
:10A8E0003C3042F62920FFF76FFF0028AAD005462A
:10A8F000EFE71A688DF810201A68120A8DF81120F7
:10A900005A888DF81220DA788DF813205A688DF85D
:10A9100014209B688DF815301A0A1B0C8DF817301F
:10A92000244B8DF816200093082294F83C3004A99B
:10A9300042F62320FFF748FF0028C4D0D7E71E4B7C
:10A940000A790093096894F83C3042F62A20FFF710
:10A950003BFF0028BAD0CAE71A788DF810205A8831
:10A960008DF81120120A8DF812209A888DF8132084
:10A97000120A8DF81420DB888DF815301B0A8DF82B
:10A9800016300E4B0093072294F83C3004A942F68F
:10A990005020FFF719FFAAE77C2C00205C2C002038
:10A9A000742C00204C2C0020442C00207E2C0020F5
:10A9B000542C0020862C00206C2C0020642C0020BD
:10A9C00010DF704713B5044609496846FDF733FBAD
:10A9D000019808B902B010BDD0E900212046904787
:10A9E00018B16846FDF731FBF2E71120F2E700BF2E
:10A9F000F8B8020013B5044607496846FDF71BFB8B
:10AA0000019B0BB902B010BD2046D3E9002190474D
:10AA10006846FDF71AFBF3E710B902000B4991F8FD
:10AA200016335A09EC231341DB0706D5084B9A6805
:10AA30003AB94FF480030B60704742F20200FCF712
:10AA400013BB1A6842F480021A60704700E100E00C
:10AA5000E4290020F7B5194F3C7864BB184E012556
:10AA600020463570FFF7AEFF112821D02046FFF7B2
:10AA7000C1FF144B8DF80340186801900DF10300DD
:10AA8000FCF74EFD104901A8FFF79AFF0446B0FA03
:10AA900080F0400938709DF80300FCF765FD3CB973
:10AAA0000A4B34701C70FFF7B9FF2846FFF7A2FF6E
:10AAB000204603B0F0BD0824FAE700BF8F2C002029
:10AAC0008E2C0020F3B8020085700200902C00202C
:10AAD000014B1878704700BF8F2C002007B508493C
:10AAE0006846FDF7A8FA019B13B903B05DF804FBB3
:10AAF000D3E9002090476846FDF7A7FAF3E700BFC7
:10AB000004B90200FFF7EABF60DF704769DF7047F2
:10AB100061DF704730B5134B1B7891B0FBB1124D1C
:10AB200034240DF1020103A8ADF80240FFF7F0FF55
:10AB300070B9294601A8FDF77EFA029B002BF0D0E0
:10AB400003A8D3E90021904701A8FDF77EFAF4E7B6
:10AB5000052804D011B0BDE83040FCF785BA11B02B
:10AB600030BD00BF912C002054BB020030B50C4614
:10AB700085B0002900F089800023CDE90133444AE3
:10AB8000039301230A608DF804008DF8063001A9B3
:10AB900006232020ADF80830FFF7B8FF60B1FDF7BD
:10ABA000A5FA3C4B3C4902463C481B1ADB081B04F7
:10ABB00043F00100FBF74CFF0023CDE90133039381
:10ABC0002268012301A940208DF80530FFF79EFF80
:10ABD00060B1FDF78BFA2F4B314902462F481B1A03
:10ABE000DB081B0443F00100FBF732FF0023CDE933
:10ABF0000133039322680A2301A901208DF8043050
:10AC0000FFF784FF60B1FDF771FA224B2549024638
:10AC100022481B1ADB081B0443F00100FBF718FF56
:10AC20000023CDE9023322684FF4B06301A9A120CB
:10AC30000193FFF76BFF60B1FDF758FA154B1A4906
:10AC4000024616481B1ADB081B0443F00100FBF701
:10AC5000FFFE00252268039501A9A020CDE901553A
:10AC6000FFF754FF034668B1FDF740FA094B0F495F
:10AC700002460A481B1ADB081B0443F00100FBF7DD
:10AC8000E7FE2B46184605B030BD0E23FAE700BF9D
:10AC9000F022002014B002001CB90200B4AF020080
:10ACA00062B90200AEB90200FAB902004BBA020062
:10ACB00073B505460668FFF727FF2B68B3420446C5
:10ACC0001DD91A481A4B1B491B1ADB081B0443F0F9
:10ACD00002000190FBF7B8FE2B6817490198324635
:10ACE000FBF7BFFE4FF080532A68D3F80C311349AD
:10ACF00001989B0203F100539A1AFBF7A9FE2CB9A5
:10AD00000F4B01221A70204602B070BD2046FDF79D
:10AD1000EDF9074B0B49024604481B1ADB081B04DC
:10AD200043F00100FBF794FEEDE700BFB4AF020073
:10AD300014B002009EBA0200CDBA0200FEBA0200B0
:10AD4000912C002028BB02004BDF70471FB50E4C32
:10AD500001A8FFF7F9FF70B9214602A8FDF76BF9CA
:10AD6000039B002BF4D00198D3E90021904702A85F
:10AD7000FDF76BF9F4E7052804D004B0BDE81040F6
:10AD8000FCF772B904B010BD6CBB02007F2805D877
:10AD9000034A044B105C5B5C18407047002070470E
:10ADA00084BB020004BC0200A0F16103192B98BF10
:10ADB00020387047A0F14103192B98BF203070470D
:10ADC0007F299ABF017001206FF02E00704700BFED
:10ADD0005AB10A787F2A0AD800B102600021501ABD
:10ADE000C3E9001118BF01207047104670476FF08B
:10ADF0002E007047A0F16103192B98BF20387047CF
:10AE0000A0F14103192B98BF203070477F2805D847
:10AE1000034A044B105C5B5C18407047002070478D
:10AE200084BB020004BC0200024B5B689B680921E2
:10AE30001B68184758230020844640EA010313F09A
:10AE4000030F18D18446202A0BD32DE9F007B1E86F
:10AE5000F807A0E8F807A2F12002202AF7D2BDE8FF
:10AE6000F007042A07D351F8043B40F8043BA2F151
:10AE70000402042AF7D2002A05D011F8013B00F899
:10AE8000013B013AF9D1604670478446002A2DD033
:10AE900010F0030F04D000F8011B013A26D0F7E7A9
:10AEA000C9B241EA012141EA0141202A12D3A2F1AB
:10AEB00020022DE9F0030B460C460D460E460F46C8
:10AEC00088468946A0E8FA03203AFBD2BDE8F003A1
:10AED00020320BD0042A05D340F8041B043A05D0D5
:10AEE000042AF9D200F8011B013AFBD160467047F1
:10AEF00000F1010110F0030F11D010F8012B002A0E
:10AF000023D010F0030F0AD010F8012B002A1CD018
:10AF100010F0030F03D010F8012B002A15D02DE9F3
:10AF200070004FF001324FF0803350F8044BA4EB27
:10AF3000020525EA04051D4000D1F6E7A0F1040052
:10AF400070BC10F8012B002AFBD1A0EB0100704768
:08AF5000B984020000000000BA
:10AF580019A002000000000071A30200502B00207D
:10AF68008D9E02000000000083A50200642B0020D3
:10AF780031A60200E82A00205595020000000000D2
:08AF88005585020000000000E5
:10AF900015AB0200000000004DAD020000000000F3
:10AFA000B02300207824002080240020B823002033
:04AFB0001800000085
:10AFB4002AB702000000000030B7020000000000C1
:10AFC40037B70200000000003BB702000000000099
:10AFD40040B702000000000092B00200000003032A
:10AFE40068B102000000000091B1020000000000FE
:10AFF400E4B802000000000024B7020000000000D2
:10B00400D7B8020000000303EBB8020000000303FA
:10B0140045BB02000000030360BB02000000030301
:10B02400F6B10200000000000CB2020000000000B3
:10B0340064B002000000000070B00200042300208D
:10B04400FFFFFFFFFFFFFFFFFFFFFFFFFFFFFFFF0C
:10B0540000000000000000000000D601060100000E
:10B06400F164020055650200A16402007561727406
:10B074005F6C6F675F6261636B656E6400426163FE
:10B084006B656E647320666C7573686564006170CB
:10B0940070000000A02800207F000000202900206C
:10B0A4001B5B313B33316D0025734C6F6773206438
:10B0B400726F70706564202825642925730D0A0059
:10B0C4001B5B306D002573003C25733E2025733ACD
:10B0D4002000202530327800202020007C002563C9
:10B0E400001B5B313B33306D001B5B313B33326DF6
:10B0F400001B5B313B33336D001B5B313B33346DE1
:10B10400001B5B313B33356D001B5B313B33366DCC
:10B11400001B5B313B33376D007761726E696E677C
:10B1240000696E666F00646562756700C4B00200F2
:10B13400E5B00200A4B00200EDB00200F5B00200D8
:10B14400FDB0020005B102000DB1020015B102000C
:10B15400000000007EB102001DB1020025B1020012
:10B164002AB102006170705F627574746F6E0000C2
:10B1740010230020466174616C206572726F720046
:10B1840053797374656D20726573657400617070B2
:10B194005F74696D65720000010006000000000024
:10B1A4005C290020F170020052544320696E7374CC
:10B1B400616E636520616C726561647920696E6992
:10B1C4007469616C697A65642E005254433A20694B
:10B1D4006E697469616C697A65642E000338FDD800
:10B1E400704730313233343536373839414243448D
:10B1F40045467077725F6D676D74000058AF02004A
:10B2040058AF020004000000736F72746C697374A9
:10B21400004E52465F53554343455353004E5246E6
:10B224005F4552524F525F5356435F48414E444C20
:10B2340045525F4D495353494E47004E52465F4570
:10B2440052524F525F534F46544445564943455F0B
:10B254004E4F545F454E41424C4544004E52465F6A
:10B264004552524F525F494E5445524E414C004E46
:10B2740052465F4552524F525F4E4F5F4D454D000F
:10B284004E52465F4552524F525F4E4F545F464FA7
:10B29400554E44004E52465F4552524F525F4E4FF8
:10B2A400545F535550504F52544544004E52465FDC
:10B2B4004552524F525F494E56414C49445F5041AA
:10B2C40052414D004E52465F4552524F525F494ED5
:10B2D40056414C49445F5354415445004E52465FD5
:10B2E4004552524F525F494E56414C49445F4C457A
:10B2F4004E475448004E52465F4552524F525F49A2
:10B304004E56414C49445F464C414753004E5246C9
:10B314005F4552524F525F494E56414C49445F4437
:10B32400415441004E52465F4552524F525F444190
:10B3340054415F53495A45004E52465F4552524F5D
:10B34400525F54494D454F5554004E52465F455245
:10B35400524F525F4E554C4C004E52465F4552522E
:10B364004F525F464F5242494444454E004E524666
:10B374005F4552524F525F494E56414C49445F41DA
:10B38400444452004E52465F4552524F525F42551A
:10B394005359004E52465F4552524F525F434F4EEF
:10B3A4004E5F434F554E54004E52465F4552524FE6
:10B3B400525F5245534F5552434553004E52465FD8
:10B3C4004552524F525F4D4F44554C455F4E4F547A
:10B3D4005F494E495449414C495A4544004E5246EE
:10B3E4005F4552524F525F4D555445585F494E493F
:10B3F400545F4641494C4544004E52465F455252C3
:10B404004F525F4D555445585F4C4F434B5F464137
:10B41400494C4544004E52465F4552524F525F4D8F
:10B42400555445585F554E4C4F434B5F4641494C2C
:10B434004544004E52465F4552524F525F4D55545B
:10B4440045585F434F4E445F494E49545F46414916
:10B454004C4544004E52465F4552524F525F4D4F49
:10B4640044554C455F414C52454144595F494E490E
:10B474005449414C495A4544004E52465F45525244
:10B484004F525F53544F524147455F46554C4C0011
:10B494004E52465F4552524F525F4150495F4E4FA4
:10B4A400545F494D504C454D454E544544004E5211
:10B4B400465F4552524F525F464541545552455F8F
:10B4C4004E4F545F454E41424C4544004E52465FF8
:10B4D4004552524F525F494F5F50454E44494E4783
:10B4E400004E52465F4552524F525F4452565F548B
:10B4F40057495F4552525F4F56455252554E004E82
:10B5040052465F4552524F525F4452565F54574918
:10B514005F4552525F414E41434B004E52465F4598
:10B5240052524F525F4452565F5457495F455252EC
:10B534005F444E41434B004E52465F4552524F5278
:10B544005F424C455F495053505F52585F504B54D3
:10B554005F5452554E4341544544004E52465F4554
:10B5640052524F525F424C455F495053505F4348DB
:10B57400414E4E454C5F414C52454144595F4558FC
:10B5840049535453004E52465F4552524F525F4204
:10B594004C455F495053505F4C494E4B5F444953AF
:10B5A400434F4E4E4543544544004E52465F455228
:10B5B400524F525F424C455F495053505F5045458E
:10B5C400525F52454A454354454400556E6B6E6F75
:10B5D400776E206572726F7220636F64650000007D
:10B5E4000000000015B202000100000021B20200B8
:10B5F400020000003FB202000300000060B202003B
:10B604000400000073B202000500000084B20200CE
:10B614000600000098B2020007000000B0B2020069
:10B6240008000000C8B2020009000000E0B20200F5
:10B634000A000000F9B202000B00000011B302007E
:10B644000C00000028B302000D0000003CB302000F
:10B654000E0000004EB302000F0000005DB30200B4
:10B664001000000071B302001100000088B3020052
:10B674001200000097B3020013000000ACB30200F4
:10B6840080000000C0B3020081000000E1B30200AA
:10B6940082000000FDB302008300000019B4020020
:10B6A4008400000037B402008500000058B4020092
:10B6B400860000007DB402009000000094B40200F3
:10B6C40091000000B2B4020092000000D0B4020065
:10B6D40000820000E5B402000182000003B502000C
:10B6E400028200001FB50200008400003BB5020086
:10B6F400018400005FB502000284000089B50200E5
:10B7040003840000AEB50200000001010100000046
:10B7140001010000000001010000000011121314D7
:10B72400636C6F636B00434C4F434B004750494F6E
:10B7340054450050525300554152540055415254FF
:10B744004500436F6E6E656374656400446973639A
:10B754006F6E6E65637465640053656E6420627514
:10B7640074746F6E207374617465206368616E67AE
:10B7740065004E6F726469635F4A4D00426C696E86
:10B784006B79206578616D706C6520737461727477
:10B7940065642E0073645F626C655F6761705F64EB
:10B7A4006174615F6C656E6774685F757064617401
:10B7B40065282920287265717565737429206F6E58
:10B7C40020636F6E6E656374696F6E2030782578C0
:10B7D4002072657475726E65642025732E0054683A
:10B7E40065207265717565737465642054582F52B1
:10B7F40058207061636B6574206C656E6774682093
:10B80400697320746F6F206C6F6E672062792025D6
:10B81400752F2575206F63746574732E00546865E5
:10B824002072657175657374656420636F6D6269F8
:10B834006E6174696F6E206F6620545820616E6467
:10B84400205258207061636B6574206C656E677458
:10B85400687320697320746F6F206C6F6E67206249
:10B8640079202575206D6963726F7365636F6E64EB
:10B87400732E0073645F626C655F67617474635FE9
:10B8840065786368616E67655F6D74755F72657115
:10B894007565737428292072657475726E656420E9
:10B8A40025732E0073645F626C655F6761747473E3
:10B8B4005F65786368616E67655F6D74755F7265F7
:10B8C400706C7928292072657475726E6564202500
:10B8D400732E006E72665F626C655F6761747400DC
:10B8E400626C655F4C42006E72665F73646800014F
:10B8F4000000070088AF020088AF020008000000C3
:10B9040090AF0200A0AF02000800000088AF020060
:10B9140090AF02000800000073645F626C655F63AF
:10B9240066675F73657428292072657475726E6525
:10B9340064202573207768656E20617474656D706A
:10B9440074696E6720746F2073657420424C455F80
:10B95400434F4E4E5F4346475F4741502E0073644A
:10B964005F626C655F6366675F7365742829207224
:10B97400657475726E6564202573207768656E2022
:10B98400617474656D7074696E6720746F2073657B
:10B994007420424C455F4741505F4346475F524FD6
:10B9A4004C455F434F554E542E0073645F626C6583
:10B9B4005F6366675F7365742829207265747572A6
:10B9C4006E6564202573207768656E2061747465E4
:10B9D4006D7074696E6720746F2073657420424CB7
:10B9E400455F434F4D4D4F4E5F4346475F56535F50
:10B9F400555549442E0073645F626C655F636667E6
:10BA04005F73657428292072657475726E6564208D
:10BA14002573207768656E20617474656D70746930
:10BA24006E6720746F2073657420424C455F4741F4
:10BA34005454535F4346475F415454525F54414208
:10BA44005F53495A452E0073645F626C655F636699
:10BA5400675F73657428292072657475726E6564F6
:10BA6400202573207768656E20617474656D707429
:10BA7400696E6720746F2073657420424C455F477C
:10BA8400415454535F4346475F53455256494345D7
:10BA94005F4348414E4745442E00496E73756666C0
:10BAA400696369656E742052414D20616C6C6F63EB
:10BAB4006174656420666F722074686520536F66D4
:10BAC400744465766963652E004368616E6765201A
